{
  "_format": "hh-sol-artifact-1",
  "contractName": "Blog",
  "sourceName": "contracts/Blog.sol",
  "abi": [
    {
      "inputs": [
        {
          "internalType": "string",
          "name": "_name",
          "type": "string"
        }
      ],
      "stateMutability": "nonpayable",
      "type": "constructor"
    },
    {
      "anonymous": false,
      "inputs": [
        {
          "indexed": false,
          "internalType": "uint256",
          "name": "id",
          "type": "uint256"
        },
        {
          "indexed": false,
          "internalType": "string",
          "name": "title",
          "type": "string"
        },
        {
          "indexed": false,
          "internalType": "string",
          "name": "hash",
          "type": "string"
        }
      ],
      "name": "PostCreated",
      "type": "event"
    },
    {
      "anonymous": false,
      "inputs": [
        {
          "indexed": false,
          "internalType": "uint256",
          "name": "id",
          "type": "uint256"
        },
        {
          "indexed": false,
          "internalType": "string",
          "name": "title",
          "type": "string"
        },
        {
          "indexed": false,
          "internalType": "string",
          "name": "hash",
          "type": "string"
        },
        {
          "indexed": false,
          "internalType": "bool",
          "name": "published",
          "type": "bool"
        }
      ],
      "name": "PostUpdated",
      "type": "event"
    },
    {
      "inputs": [
        {
          "internalType": "string",
          "name": "title",
          "type": "string"
        },
        {
          "internalType": "string",
          "name": "hash",
          "type": "string"
        }
      ],
      "name": "createPost",
      "outputs": [],
      "stateMutability": "nonpayable",
      "type": "function"
    },
    {
      "inputs": [
        {
          "internalType": "string",
          "name": "hash",
          "type": "string"
        }
      ],
      "name": "fetchPost",
      "outputs": [
        {
          "components": [
            {
              "internalType": "uint256",
              "name": "id",
              "type": "uint256"
            },
            {
              "internalType": "string",
              "name": "title",
              "type": "string"
            },
            {
              "internalType": "string",
              "name": "content",
              "type": "string"
            },
            {
              "internalType": "bool",
              "name": "published",
              "type": "bool"
            }
          ],
          "internalType": "struct Blog.Post",
          "name": "",
          "type": "tuple"
        }
      ],
      "stateMutability": "view",
      "type": "function"
    },
    {
      "inputs": [],
      "name": "fetchPosts",
      "outputs": [
        {
          "components": [
            {
              "internalType": "uint256",
              "name": "id",
              "type": "uint256"
            },
            {
              "internalType": "string",
              "name": "title",
              "type": "string"
            },
            {
              "internalType": "string",
              "name": "content",
              "type": "string"
            },
            {
              "internalType": "bool",
              "name": "published",
              "type": "bool"
            }
          ],
          "internalType": "struct Blog.Post[]",
          "name": "",
          "type": "tuple[]"
        }
      ],
      "stateMutability": "view",
      "type": "function"
    },
    {
      "inputs": [],
      "name": "name",
      "outputs": [
        {
          "internalType": "string",
          "name": "",
          "type": "string"
        }
      ],
      "stateMutability": "view",
      "type": "function"
    },
    {
      "inputs": [],
      "name": "owner",
      "outputs": [
        {
          "internalType": "address",
          "name": "",
          "type": "address"
        }
      ],
      "stateMutability": "view",
      "type": "function"
    },
    {
      "inputs": [
        {
          "internalType": "address",
          "name": "newOwner",
          "type": "address"
        }
      ],
      "name": "transferOwnership",
      "outputs": [],
      "stateMutability": "nonpayable",
      "type": "function"
    },
    {
      "inputs": [
        {
          "internalType": "string",
          "name": "_name",
          "type": "string"
        }
      ],
      "name": "updateName",
      "outputs": [],
      "stateMutability": "nonpayable",
      "type": "function"
    },
    {
      "inputs": [
        {
          "internalType": "uint256",
          "name": "postId",
          "type": "uint256"
        },
        {
          "internalType": "string",
          "name": "title",
          "type": "string"
        },
        {
          "internalType": "string",
          "name": "hash",
          "type": "string"
        },
        {
          "internalType": "bool",
          "name": "published",
          "type": "bool"
        }
      ],
      "name": "updatePost",
      "outputs": [],
      "stateMutability": "nonpayable",
      "type": "function"
    }
  ],
  "bytecode": "0x60806040523480156200001157600080fd5b5060405162001b7838038062001b788339818101604052810190620000379190620002d5565b620000836040518060400160405280601981526020017f4465706c6f79696e6720426c6f672077697468206e616d653a0000000000000081525082620000e460201b62000ad51760201c565b80600090805190602001906200009b929190620001b3565b5033600160006101000a81548173ffffffffffffffffffffffffffffffffffffffff021916908373ffffffffffffffffffffffffffffffffffffffff1602179055505062000522565b620001868282604051602401620000fd9291906200035b565b6040516020818303038152906040527f4b5c4277000000000000000000000000000000000000000000000000000000007bffffffffffffffffffffffffffffffffffffffffffffffffffffffff19166020820180517bffffffffffffffffffffffffffffffffffffffffffffffffffffffff83818316178352505050506200018a60201b60201c565b5050565b60008151905060006a636f6e736f6c652e6c6f679050602083016000808483855afa5050505050565b828054620001c19062000447565b90600052602060002090601f016020900481019282620001e5576000855562000231565b82601f106200020057805160ff191683800117855562000231565b8280016001018555821562000231579182015b828111156200023057825182559160200191906001019062000213565b5b50905062000240919062000244565b5090565b5b808211156200025f57600081600090555060010162000245565b5090565b60006200027a6200027484620003bf565b62000396565b9050828152602081018484840111156200029357600080fd5b620002a084828562000411565b509392505050565b600082601f830112620002ba57600080fd5b8151620002cc84826020860162000263565b91505092915050565b600060208284031215620002e857600080fd5b600082015167ffffffffffffffff8111156200030357600080fd5b6200031184828501620002a8565b91505092915050565b60006200032782620003f5565b62000333818562000400565b93506200034581856020860162000411565b620003508162000511565b840191505092915050565b600060408201905081810360008301526200037781856200031a565b905081810360208301526200038d81846200031a565b90509392505050565b6000620003a2620003b5565b9050620003b082826200047d565b919050565b6000604051905090565b600067ffffffffffffffff821115620003dd57620003dc620004e2565b5b620003e88262000511565b9050602081019050919050565b600081519050919050565b600082825260208201905092915050565b60005b838110156200043157808201518184015260208101905062000414565b8381111562000441576000848401525b50505050565b600060028204905060018216806200046057607f821691505b60208210811415620004775762000476620004b3565b5b50919050565b620004888262000511565b810181811067ffffffffffffffff82111715620004aa57620004a9620004e2565b5b80604052505050565b7f4e487b7100000000000000000000000000000000000000000000000000000000600052602260045260246000fd5b7f4e487b7100000000000000000000000000000000000000000000000000000000600052604160045260246000fd5b6000601f19601f8301169050919050565b61164680620005326000396000f3fe608060405234801561001057600080fd5b50600436106100885760003560e01c80638da5cb5b1161005b5780638da5cb5b14610113578063abaddd7f14610131578063cd349fe91461014f578063f2fde38b1461016b57610088565b806306fdde031461008d578063392338f5146100ab57806344828659146100c757806384da92a7146100f7575b600080fd5b610095610187565b6040516100a291906111c7565b60405180910390f35b6100c560048036038101906100c09190610e29565b610215565b005b6100e160048036038101906100dc9190610de8565b6103d0565b6040516100ee9190611220565b60405180910390f35b610111600480360381019061010c9190610de8565b610551565b005b61011b61056b565b604051610128919061118a565b60405180910390f35b610139610591565b60405161014691906111a5565b60405180910390f35b61016960048036038101906101649190610e95565b610809565b005b61018560048036038101906101809190610dbf565b610a37565b005b6000805461019490611481565b80601f01602080910402602001604051908101604052809291908181526020018280546101c090611481565b801561020d5780601f106101e25761010080835404028352916020019161020d565b820191906000526020600020905b8154815290600101906020018083116101f057829003601f168201915b505050505081565b600160009054906101000a900473ffffffffffffffffffffffffffffffffffffffff1673ffffffffffffffffffffffffffffffffffffffff163373ffffffffffffffffffffffffffffffffffffffff161461026f57600080fd5b6102796002610b71565b60006102856002610b87565b90506000600360008381526020019081526020016000209050818160000181905550838160010190805190602001906102bf929190610bbe565b5060018160030160006101000a81548160ff021916908315150217905550828160020190805190602001906102f5929190610bbe565b50806004846040516103079190611173565b908152602001604051809103902060008201548160000155600182018160010190805461033390611481565b61033e929190610c44565b50600282018160020190805461035390611481565b61035e929190610c44565b506003820160009054906101000a900460ff168160030160006101000a81548160ff0219169083151502179055509050507fe6851f0b99a9d86e5d68a97f65218980851216ce297f789c6b6b7e82ca1d90c88285856040516103c293929190611242565b60405180910390a150505050565b6103d8610cd1565b6004826040516103e89190611173565b90815260200160405180910390206040518060800160405290816000820154815260200160018201805461041b90611481565b80601f016020809104026020016040519081016040528092919081815260200182805461044790611481565b80156104945780601f1061046957610100808354040283529160200191610494565b820191906000526020600020905b81548152906001019060200180831161047757829003601f168201915b505050505081526020016002820180546104ad90611481565b80601f01602080910402602001604051908101604052809291908181526020018280546104d990611481565b80156105265780601f106104fb57610100808354040283529160200191610526565b820191906000526020600020905b81548152906001019060200180831161050957829003601f168201915b505050505081526020016003820160009054906101000a900460ff1615151515815250509050919050565b8060009080519060200190610567929190610bbe565b5050565b600160009054906101000a900473ffffffffffffffffffffffffffffffffffffffff1681565b6060600061059f6002610b87565b905060008167ffffffffffffffff8111156105e3577f4e487b7100000000000000000000000000000000000000000000000000000000600052604160045260246000fd5b60405190808252806020026020018201604052801561061c57816020015b610609610cd1565b8152602001906001900390816106015790505b50905060005b8281101561080057600060018261063991906113a1565b90506000600360008381526020019081526020016000209050806040518060800160405290816000820154815260200160018201805461067890611481565b80601f01602080910402602001604051908101604052809291908181526020018280546106a490611481565b80156106f15780601f106106c6576101008083540402835291602001916106f1565b820191906000526020600020905b8154815290600101906020018083116106d457829003601f168201915b5050505050815260200160028201805461070a90611481565b80601f016020809104026020016040519081016040528092919081815260200182805461073690611481565b80156107835780601f1061075857610100808354040283529160200191610783565b820191906000526020600020905b81548152906001019060200180831161076657829003601f168201915b505050505081526020016003820160009054906101000a900460ff1615151515815250508484815181106107e0577f4e487b7100000000000000000000000000000000000000000000000000000000600052603260045260246000fd5b6020026020010181905250505080806107f8906114e4565b915050610622565b50809250505090565b600160009054906101000a900473ffffffffffffffffffffffffffffffffffffffff1673ffffffffffffffffffffffffffffffffffffffff163373ffffffffffffffffffffffffffffffffffffffff161461086357600080fd5b600060036000868152602001908152602001600020905083816001019080519060200190610892929190610bbe565b50818160030160006101000a81548160ff021916908315150217905550828160020190805190602001906108c7929190610bbe565b5080600360008781526020019081526020016000206000820154816000015560018201816001019080546108fa90611481565b610905929190610c44565b50600282018160020190805461091a90611481565b610925929190610c44565b506003820160009054906101000a900460ff168160030160006101000a81548160ff021916908315150217905550905050806004846040516109679190611173565b908152602001604051809103902060008201548160000155600182018160010190805461099390611481565b61099e929190610c44565b5060028201816002019080546109b390611481565b6109be929190610c44565b506003820160009054906101000a900460ff168160030160006101000a81548160ff0219169083151502179055509050507f9f8eb93fc073102bbd3072664634ab200707a4f11d94aace9cc8d0e4d019eff58160000154858585604051610a289493929190611287565b60405180910390a15050505050565b600160009054906101000a900473ffffffffffffffffffffffffffffffffffffffff1673ffffffffffffffffffffffffffffffffffffffff163373ffffffffffffffffffffffffffffffffffffffff1614610a9157600080fd5b80600160006101000a81548173ffffffffffffffffffffffffffffffffffffffff021916908373ffffffffffffffffffffffffffffffffffffffff16021790555050565b610b6d8282604051602401610aeb9291906111e9565b6040516020818303038152906040527f4b5c4277000000000000000000000000000000000000000000000000000000007bffffffffffffffffffffffffffffffffffffffffffffffffffffffff19166020820180517bffffffffffffffffffffffffffffffffffffffffffffffffffffffff8381831617835250505050610b95565b5050565b6001816000016000828254019250508190555050565b600081600001549050919050565b60008151905060006a636f6e736f6c652e6c6f679050602083016000808483855afa5050505050565b828054610bca90611481565b90600052602060002090601f016020900481019282610bec5760008555610c33565b82601f10610c0557805160ff1916838001178555610c33565b82800160010185558215610c33579182015b82811115610c32578251825591602001919060010190610c17565b5b509050610c409190610cfb565b5090565b828054610c5090611481565b90600052602060002090601f016020900481019282610c725760008555610cc0565b82601f10610c835780548555610cc0565b82800160010185558215610cc057600052602060002091601f016020900482015b82811115610cbf578254825591600101919060010190610ca4565b5b509050610ccd9190610cfb565b5090565b60405180608001604052806000815260200160608152602001606081526020016000151581525090565b5b80821115610d14576000816000905550600101610cfc565b5090565b6000610d2b610d26846112ff565b6112da565b905082815260208101848484011115610d4357600080fd5b610d4e84828561143f565b509392505050565b600081359050610d65816115cb565b92915050565b600081359050610d7a816115e2565b92915050565b600082601f830112610d9157600080fd5b8135610da1848260208601610d18565b91505092915050565b600081359050610db9816115f9565b92915050565b600060208284031215610dd157600080fd5b6000610ddf84828501610d56565b91505092915050565b600060208284031215610dfa57600080fd5b600082013567ffffffffffffffff811115610e1457600080fd5b610e2084828501610d80565b91505092915050565b60008060408385031215610e3c57600080fd5b600083013567ffffffffffffffff811115610e5657600080fd5b610e6285828601610d80565b925050602083013567ffffffffffffffff811115610e7f57600080fd5b610e8b85828601610d80565b9150509250929050565b60008060008060808587031215610eab57600080fd5b6000610eb987828801610daa565b945050602085013567ffffffffffffffff811115610ed657600080fd5b610ee287828801610d80565b935050604085013567ffffffffffffffff811115610eff57600080fd5b610f0b87828801610d80565b9250506060610f1c87828801610d6b565b91505092959194509250565b6000610f348383611081565b905092915050565b610f45816113f7565b82525050565b6000610f5682611340565b610f608185611363565b935083602082028501610f7285611330565b8060005b85811015610fae5784840389528151610f8f8582610f28565b9450610f9a83611356565b925060208a01995050600181019050610f76565b50829750879550505050505092915050565b610fc981611409565b82525050565b610fd881611409565b82525050565b6000610fe98261134b565b610ff38185611374565b935061100381856020860161144e565b61100c816115ba565b840191505092915050565b60006110228261134b565b61102c8185611385565b935061103c81856020860161144e565b611045816115ba565b840191505092915050565b600061105b8261134b565b6110658185611396565b935061107581856020860161144e565b80840191505092915050565b60006080830160008301516110996000860182611155565b50602083015184820360208601526110b18282610fde565b915050604083015184820360408601526110cb8282610fde565b91505060608301516110e06060860182610fc0565b508091505092915050565b60006080830160008301516111036000860182611155565b506020830151848203602086015261111b8282610fde565b915050604083015184820360408601526111358282610fde565b915050606083015161114a6060860182610fc0565b508091505092915050565b61115e81611435565b82525050565b61116d81611435565b82525050565b600061117f8284611050565b915081905092915050565b600060208201905061119f6000830184610f3c565b92915050565b600060208201905081810360008301526111bf8184610f4b565b905092915050565b600060208201905081810360008301526111e18184611017565b905092915050565b600060408201905081810360008301526112038185611017565b905081810360208301526112178184611017565b90509392505050565b6000602082019050818103600083015261123a81846110eb565b905092915050565b60006060820190506112576000830186611164565b81810360208301526112698185611017565b9050818103604083015261127d8184611017565b9050949350505050565b600060808201905061129c6000830187611164565b81810360208301526112ae8186611017565b905081810360408301526112c28185611017565b90506112d16060830184610fcf565b95945050505050565b60006112e46112f5565b90506112f082826114b3565b919050565b6000604051905090565b600067ffffffffffffffff82111561131a5761131961158b565b5b611323826115ba565b9050602081019050919050565b6000819050602082019050919050565b600081519050919050565b600081519050919050565b6000602082019050919050565b600082825260208201905092915050565b600082825260208201905092915050565b600082825260208201905092915050565b600081905092915050565b60006113ac82611435565b91506113b783611435565b9250827fffffffffffffffffffffffffffffffffffffffffffffffffffffffffffffffff038211156113ec576113eb61152d565b5b828201905092915050565b600061140282611415565b9050919050565b60008115159050919050565b600073ffffffffffffffffffffffffffffffffffffffff82169050919050565b6000819050919050565b82818337600083830152505050565b60005b8381101561146c578082015181840152602081019050611451565b8381111561147b576000848401525b50505050565b6000600282049050600182168061149957607f821691505b602082108114156114ad576114ac61155c565b5b50919050565b6114bc826115ba565b810181811067ffffffffffffffff821117156114db576114da61158b565b5b80604052505050565b60006114ef82611435565b91507fffffffffffffffffffffffffffffffffffffffffffffffffffffffffffffffff8214156115225761152161152d565b5b600182019050919050565b7f4e487b7100000000000000000000000000000000000000000000000000000000600052601160045260246000fd5b7f4e487b7100000000000000000000000000000000000000000000000000000000600052602260045260246000fd5b7f4e487b7100000000000000000000000000000000000000000000000000000000600052604160045260246000fd5b6000601f19601f8301169050919050565b6115d4816113f7565b81146115df57600080fd5b50565b6115eb81611409565b81146115f657600080fd5b50565b61160281611435565b811461160d57600080fd5b5056fea26469706673582212206b4b0890d212b3b80bda7d7d4326fe610bc43f10e81b2084ea5e320992d6d8b564736f6c63430008040033",
  "linkReferences": {},
  "deployedLinkReferences": {}
}